:0400000064EF02F0B7
:10000800FACF64F0FBCF65F0E9CF66F0EACF67F08E
:10001800E1CF68F0E2CF69F0D9CF6AF0DACF6BF0C0
:10002800F3CF6CF0F4CF6DF0F6CF6EF0F7CF6FF042
:10003800F8CF70F0F5CF71F0A1A42AD0000E00011E
:10004800BC6F000E0001BB6F0001BC51800A800F1D
:10005800050ED8B4BB5DD8B019D0110E0001606F81
:100068003A0EE82EFED7602FFCD700D08084110E00
:100078000001606F3A0EE82EFED7602FFCD700D043
:10008800809404000001BB4BBC2BDED7A194FBD1AC
:100098009EAAF9D166EC0DF00001B86F8084CAD130
:1000A8009EAAFED709EC0DF002C0B6F003C0B7F067
:1000B800B6C005F0B7C006F097EC07F0E2D1ACA2E5
:1000C800FED70001000E096E0001720E086E1FC1F6
:1000D8000AF020C10BF0000E0D6E020E0C6EA0ECA3
:1000E8000AF00001000E576E0001720E566EE9EC20
:1000F8000BF0C7D1ACA2FED70001000E096E0001BB
:10010800720E086EC6C00AF0C7C00BF0000E0D6E66
:10011800020E0C6EA0EC0AF00001000E576E0001F2
:10012800720E566EE9EC0BF0ACD1ACA2FED7000E05
:10013800026E000E016E97EC0DF00001606F000179
:1001480060510001626F616B000E026E010E016E5C
:1001580097EC0DF00001636F00016351000161111C
:100168000001BD6F000162510001BE6F0001000E69
:10017800096E0001720E086EBDC00AF0BEC00BF019
:10018800000E0D6E020E0C6EA0EC0AF00001000EBF
:10019800576E0001720E566EE9EC0BF072D1ACA2EC
:1001A800FED7000E026E040E016E97EC0DF00001F2
:1001B800606F000160510001626F616B000E026E9A
:1001C800050E016E97EC0DF00001636F000163519D
:1001D800000161110001BD6F000162510001BE6F95
:1001E8000001000E096E0001720E086EBDC00AF013
:1001F800BEC00BF0000E0D6E020E0C6EA0EC0AF0E5
:100208000001000E576E0001720E566EE9EC0BF0FD
:1002180038D1ACA2FED7000E2C6E870E2B6EF7ECF1
:1002280009F02BC047F02CC048F02DC049F0000160
:10023800000E4B6E0001B90E4A6E03EC07F047C082
:1002480056F048C057F0E9EC0BF01BD1ACA2FED732
:10025800000E2C6E8F0E2B6EF7EC09F02BC035F0CC
:100268002CC036F02DC037F0000E386E400E396EB7
:10027800400E3A6E75EC05F035C0B3F036C0B4F0F8
:1002880037C0B5F0B3C047F0B4C048F0B5C049F0C6
:100298000001000E4B6E0001B90E4A6E03EC07F028
:1002A80047C056F048C057F0E9EC0BF0EAD09EAAD8
:1002B800FED766EC0DF00001C16FB7EC0DF0000E33
:1002C800026E000E016EC1C003F0D2EC0CF09EAAC3
:1002D800FED766EC0DF00001C16FB7EC0DF0000E13
:1002E800026E010E016EC1C003F0D2EC0CF0C9D051
:1002F8009EAAFED766EC0DF00001C16FB7EC0DF0B9
:10030800000E026E040E016EC1C003F0D2EC0CF0B8
:100318009EAAFED766EC0DF00001C16FB7EC0DF098
:10032800000E026E050E016EC1C003F0D2EC0CF097
:10033800A8D09EAAFED766EC0DF00001C16FB7ECFD
:100348000DF0000E026E020E016EC1C003F0D2EC79
:100358000CF09EAAFED766EC0DF00001C16FB7EC59
:100368000DF0000E026E030E016EC1C003F0D2EC58
:100378000CF0000E026E020E016E97EC0DF00001FB
:10038800606F000160510001626F616B000E026EC8
:10039800030E016E97EC0DF00001636F00016351CD
:1003A800000161110001C66F000162510001C76FB1
:1003B8001FC105F020C106F097EC07F062D09EAA95
:1003C800FED709EC0DF002C0BFF003C0C0F0000179
:1003D800BF5101011F11056E0001C051010120111B
:1003E800066E97EC07F04DD09EAAFED709EC0DF0EB
:1003F80002C0BFF003C0C0F00001BF1D0001606F64
:100408000001C01D0001616F01011F51000160154D
:10041800056E0101205100016115066E97EC07F089
:1004280030D0ACA2FED7050E576E290E566EE9ECF9
:100438000BF027D00001B851410AD8B4C0D7050A3B
:10044800D8B435D7010AD8B4CFD7020AD8B437D62A
:100458000F0AD8B44FD6010AD8B467D6030AD8B45D
:100468009ED6010AD8B444D7180AD8B419D6070AB0
:10047800D8B4CFD6010AD8B45CD7210AD8B4E6D606
:10048800D0D780949E9A71C0F5FF70C0F8FF6FC0F6
:10049800F7FF6EC0F6FF6DC0F4FF6CC0F3FF6BC0D2
:1004A800DAFF6AC0D9FF69C0E2FF68C0E1FF67C030
:1004B800EAFF66C0E9FF65C0FBFF64C0FAFF1100F0
:0404C8001DEF0DF027
:1005000000010000000A00000064000000E8030091
:100510000010270000A086010040420F008096983E
:100520000000E1F50500CA9A3B556E6B6E6F7720AF
:10053000636F6D6D616E6400256C752E25362E36E9
:100540006C750000000E2B6E1B0E2A6E86D1355086
:10055000250AD8B409D017C0D9FF18C0DAFF35C0B2
:10056000DFFF174A182A79D1000E326E000E316E65
:10057000000E296E19C0F6FF1AC0F7FF0800F550EB
:1005800056EC0DF0D8A032D0000E326E000E316E57
:1005900031C001F032C002F0000E046E0A0E036E8C
:1005A00030EC0DF001C031F002C032F0D00E236EFD
:1005B000FF0E246E19C0F6FF1AC0F7FF0800F550B1
:1005C000256E266A235025262450262225503126C2
:1005D00026503222194A1A2A19C0F6FF1AC0F7FF0C
:1005E0000800F55056EC0DF0D8B0D2D719C0F6FF80
:1005F0001AC0F7FF0800F5502E0AD8A42DD0194ACA
:100600001A2A000E346E000E336E1BD033C001F078
:1006100034C002F0000E046E0A0E036E30EC0DF0D2
:1006200019C0F6FF1AC0F7FF0800F5500126000EAA
:100630000222D00E0124336EFF0E0220346E194ABE
:100640001A2A19C0F6FF1AC0F7FF0800F55056EC39
:100650000DF0D8A00BD0DAD7000E346E000E336E3A
:1006600005D0298803D0C00E291214D019C0F6FF76
:100670001AC0F7FF194A1A2A0800F5CF35F035508D
:10068000000AD8B4F5D06C0AD8B4EBD7190AD8B49C
:10069000EAD7E3D029A80ED02AC0D9FF2BC0DAFFB1
:1006A000DECF2CF0DECF2DF0DECF2EF0DECF2FF020
:1006B000040E0FD02AC0D9FF2BC0DAFFDECF23F003
:1006C000DDCF24F023C02CF024C02DF02E6A2F6A39
:1006D000020E2A26000E2B2234503310D8A408D044
:1006E0002F502C102D102E10D8A402D0334A342AAB
:1006F000010E356E35500A0AD8B418D03550040DA5
:10070000010EF324F66E050EF420F76E0900F55085
:100710002C5C0900F5502D580900F5502E580900A1
:10072000F5502F58D8A002D0352AE4D7800E35BE18
:100730007F0E236E3350355C3450800A2358D8B076
:1007400003D033C035F010D03450800A236E3550BA
:10075000335C800E35BE7F0E2358D8B005D035509F
:10076000336E346A33BE3406800E35BE7F0E236E80
:100770003150355C3250800A2358D8B007D03550FC
:10078000315E000E35BEFF0E325A04D0000E326EBE
:10079000000E316E32503110D8B457D017C0D9FF87
:1007A00018C0DAFF200EDF6E174A182A3106D8A0CB
:1007B0003206F0D733C023F034C024F0D89023366B
:1007C0002436D89023362436010E2324F66E050EE7
:1007D0002420F76E0900F5CF05F00900F5CF06F0EB
:1007E0000900F5CF07F00A00F5CF08F02CC001F0A2
:1007F0002DC002F02EC003F02FC004F075EC0BF0FA
:1008000001C00EF002C00FF003C010F004C011F0E0
:100810000A0E126E000E136E000E146E000E156E90
:10082000B6EC0BF00EC025F00FC026F010C027F07C
:1008300011C028F02550300F356E17C0D9FF18C0F1
:10084000DAFF35C0DFFF174A182A3306D8A034066E
:100850003328D8B43428D8A4ADD719C0F6FF1AC0AD
:10086000F7FF194A1A2A0800F5CF35F035666FD61A
:1008700017C0D9FF18C0DAFF000EDF6E1200D39C3C
:10088000D38AD388800E946E080E936E0B0E926EF0
:10089000D08CB48ED286D294D282D290D29ED2887C
:1008A000A194A08415D0110E0101116F3A0EE82E0B
:1008B000FED7112FFCD700D08084110E0101116FDB
:1008C0003A0EE82EFED7112FFCD700D080940400FA
:1008D00081B6E9D7000E01010C6F000E01010B6F0C
:1008E00011EC09F0000E0101016F060E0101006F0D
:1008F0008EEC0DF00101116F010111510101136F17
:10090000126B000E0101016F070E0101006F8EECEA
:100910000DF00101146F01011451010112110101C7
:10092000156F010113510101166F15C104F116C1B4
:1009300005F14BEC06F0000E0101186F190E0101D4
:10094000176F17C100F118C101F17C0E34EC0BF0E8
:10095000B8860400010E75EC0DF00400040E0101D0
:10096000006F000E0101026F000E0101016F8F0E7A
:10097000F2EC0AF09E9CF28C9D9CF28E000E01011E
:100980001E6F000E01011D6F2DD001011D4B1E2B8E
:10099000530EE82EFED700F0030E01011D150101D4
:1009A000116F000E01011E150101126F010112519C
:1009B0001111D8A402D0010E01D0000E0101136F55
:1009C000010113471347805001011319FB0B131941
:1009D000806E01011E51800A7D0FE90ED8B41D5DA5
:1009E000D8B002D081B6D1D701011E51800A7D0F47
:1009F000210ED8B41D5DD8A027D021C11FF122C17E
:100A000020F11FC104F120C105F14BEC06F08084F8
:100A1000000E01011A6F000E0101196F01011A5138
:100A2000800A800F050ED8B4195DD8B04ED0210EC3
:100A30000101116F760EE82EFED7112FFCD700D0E2
:100A40000101194B1A2BEAD701011E51800A800FB0
:100A5000060ED8B41D5DD8A039D0000E01010C6F70
:100A6000010E01010B6F11EC09F08084000E0101F1
:100A70001C6F000E01011B6F01011C51800A800FC9
:100A8000050ED8B41B5DD8B020D0210E0101116F26
:100A9000760EE82EFED7112FFCD700D001011B4B9C
:100AA0001C2BEAD7210E0101116F760EE82EFED71E
:100AB000112FFCD700D08084210E0101116F760E1A
:100AC000E82EFED7112FFCD700D0809481A60BD042
:100AD00001011E51800AF36E800EF35C060ED8B43D
:100AE0001D5DD8B0DFD7040049D737C03BF03C6A62
:100AF0003D6A36343B3601E33C803B50406E3AC0A1
:100B00003BF03C6A3D6A39343B3601E33C803B5064
:100B10003F6E4050D8B40CD03F50405CD8B00FD09E
:100B2000405000083F243B6E190E3B5CD8A007D014
:100B300038C035F039C036F03AC037F012003F50B7
:100B4000D8B40CD040503F5CD8B00FD03F50000814
:100B500040243B6E190E3B5CD8A007D035C035F061
:100B600036C036F037C037F01200060E3E6E37BE84
:100B70003E8E3ABE3E8C368EFF0E3516FF0E361672
:100B8000000E3716398EFF0E3816FF0E3916000E7E
:100B90003A163F50405CD8B01AD0D8903836393623
:100BA0003A363F063F504018D8B40DD03E063EC0FE
:100BB0003BF0070E3B16D8B406D0EFD7D8903732AB
:100BC00036323532402A3F504062F8D71DD040506F
:100BD0003F5CD8B019D0D890353636363736400617
:100BE0003F504018D8B40DD03E063EC03BF0070E33
:100BF0003B16D8B406D0EFD7D8903A3239323832D3
:100C00003F2A3F504062F8D73EAE0CD0FF0E351A57
:100C1000FF0E361AFF0E371A010E3526000E362249
:100C2000000E37223EAC0CD0FF0E381AFF0E391AD8
:100C3000FF0E3A1A010E3826000E3922000E3A2213
:100C4000000E3E6E355038263650392237503A2243
:100C50003AAE0ED0FF0E381AFF0E391AFF0E3A1AAE
:100C6000010E3826000E3922000E3A22010E3E6E89
:100C700038C001F039C002F03AC003F040C004F0BF
:100C80003EC005F04CEC0AF001C035F002C036F071
:100C900003C037F01200B4EC0DF0000E0101016F3B
:100CA000060E0101006F010105C106F106C107F141
:100CB0000101086B010107510101026FB3EC0CF057
:100CC000A6B2FED7B4EC0DF0000E0101016F070EC5
:100CD0000101006F04C102F1B3EC0CF004C11FF17B
:100CE00005C120F10001C651010104190101096F7C
:100CF0000001C7510101051901010A6F01010951E4
:100D00000F0B826E010109C106F101010AC107F151
:100D1000040E0101086F0101D89007330633010169
:100D2000082FF9D7010E010106178150010106199C
:100D3000FE0B0619816E010109C106F101010AC10C
:100D400007F1050E0101086F0101D8900733063342
:100D50000101082FF9D7010E010106170101063321
:100D600006338050010106197F0B0619806E0101C0
:100D700009C106F101010AC107F1060E0101086F60
:100D80000101D890073306330101082FF9D7010E6E
:100D9000010106170101063B064706478050010185
:100DA0000619BF0B0619806E010109C106F1010188
:100DB0000AC107F1070E0101086F0101D89007333E
:100DC00006330101082FF9D7010E010106170101B1
:100DD000063B0647805001010619DF0B0619806E9D
:100DE00001010AC106F106C107F10101086B010EFC
:100DF000010107170101073B805001010719EF0BA3
:100E00000719806E12000001000E556E0001C80E19
:100E1000546E4950800A800F05E1000E485C02E1E3
:100E2000000E475CD8B016D054C0D9FF55C0DAFFC9
:100E30002D0EDF6E544A552A47C001F048C002F01B
:100E400049C003F043EC0DF001C047F002C048F088
:100E500003C049F047C02BF048C02CF049C02DF02A
:100E60001EEC08F02BC050F02CC051F02DC052F0F9
:100E70002EC053F047C041F048C042F049C043F093
:100E800050C009F051C00AF052C00BF053C00CF032
:100E900017EC0CF009C044F00AC045F00BC046F056
:100EA000EEEC0CF041C047F042C048F043C049F0BE
:100EB000240E1F6E740E206E490E216E47C01CF06A
:100EC00048C01DF049C01EF099EC08F01CC02BF082
:100ED0001DC02CF01EC02DF01EEC08F02BC04CF0F5
:100EE0002CC04DF02DC04EF02EC04FF055C018F064
:100EF00054C017F0050E1A6E380E196E50C01BF054
:100F000051C01CF052C01DF053C01EF04CC01FF069
:100F10004DC020F04EC021F04FC022F0A2EC02F0F4
:100F20000001000E486E0001C80E476E1200B7ECBB
:100F30000DF0000E026E060E016E06C007F007C02F
:100F400008F0096A0850036ED2EC0CF0A6B2FED786
:100F5000B7EC0DF0000E026E070E016E05C003F037
:100F6000D2EC0CF005C01FF106C020F10001C65103
:100F700005180A6E0001C75106180B6E0A500F0BB8
:100F8000826E0AC007F00BC008F0040E096ED890FC
:100F900008320732092EFBD7010E071681500718B9
:100FA000FE0B0718816E0AC007F00BC008F0050E93
:100FB000096ED89008320732092EFBD7010E0716AA
:100FC00007320732805007187F0B0718806E0AC05F
:100FD00007F00BC008F0060E096ED89008320732F1
:100FE000092EFBD7010E0716073A07460746805021
:100FF0000718BF0B0718806E0AC007F00BC008F077
:10100000070E096ED89008320732092EFBD7010E61
:101010000716073A074680500718DF0B0718806E3F
:101020000BC007F007C008F0096A010E0816083A5D
:1010300080500818EF0B0818806E12002DC02FF09A
:10104000306A316A2C342F3601E330802F50396EEC
:10105000396609D0000E2B6E000E2C6E000E2D6E20
:10106000000E2E6E1200170E2F6E2BC030F02CC00B
:1010700031F02DC032F02F28336E04D0D8903232A8
:1010800031323032332EFAD73050346E2C8EFF0E80
:101090002B16FF0E2C16000E2D162B50356E2C50D5
:1010A000366E2D50376E386A8E0E395E39AE19D0D5
:1010B0003950800A2F6EF10E800A2F5CD8B009D00B
:1010C000000E2B6E000E2C6E000E2D6E000E2E6E7E
:1010D0001200D8903832373236323532393EF9D7AD
:1010E00014D0170E39640FD0000E2B6E000E2C6E2C
:1010F000000E2D6E000E2E6E1200D890353636364C
:101100003736383639063966F8D73450D8B408D06F
:10111000381E371E361E356C000E36223722382216
:1011200035C02BF036C02CF037C02DF038C02EF073
:1011300012001EC022F0236A246A1D34223601E305
:1011400023802250256E256607D0000E1C6E000EEF
:101150001D6E000E1E6E120021C022F0236A246A4A
:101160002034223601E3238022502A6E2A6607D0DB
:10117000000E1C6E000E1D6E000E1E6E12002A5018
:101180007B0F25261EC02AF021502A1A800E2A160F
:101190001D8E208EFF0E1F16FF0E2016000E21162C
:1011A000000E266E000E276E000E286E070E296EAA
:1011B0001CA006D01F50262620502722215028226E
:1011C000D8901E321D321C32D8901F362036213660
:1011D000292EEED7090E296E1CA006D01F502626F8
:1011E0002050272221502822D8901E321D321C3236
:1011F000D890283227322632292EEED726C001F089
:1012000027C002F028C003F025C004F02AC005F072
:101210004CEC0AF001C01CF002C01DF003C01EF02F
:101220001200000E0101016F000E0101006F8EEC33
:101230000DF001010D6F01010D5101010F6F0E6BDA
:10124000000E0101016F010E0101006F8EEC0DF027
:101250000101106F0101105101010E1101011F6FF9
:1012600001010F510101206F000E0101016F020EFB
:101270000101006F8EEC0DF001010D6F01010D51A8
:1012800001010F6F0E6B000E0101016F030E0101D2
:10129000006F8EEC0DF00101106F01011051010182
:1012A0000E110001C66F01010F510001C76F000E42
:1012B0000101016F040E0101006F8EEC0DF00101C0
:1012C0000D6F01010D5101010F6F0E6B000E010139
:1012D000016F050E0101006F8EEC0DF00101106F22
:1012E0000101105101010E110101216F01010F5186
:1012F0000101226F01010C510B11D8B412001FC162
:1013000004F120C105F14BEC06F012000FC013F000
:10131000146A156A0E34133601E3148013501A6EE2
:101320001A6607D0000E0D6E000E0E6E000E0F6EC8
:10133000120012C013F0146A156A1134133601E357
:10134000148013501B6E1B6607D0000E0D6E000E2E
:101350000E6E000E0F6E1200000E176E000E186E4D
:10136000000E196E1B50890F1A5E0FC01BF0125031
:101370001B1A800E1B160E8EFF0E0D16FF0E0E167C
:10138000000E0F16118EFF0E1016FF0E1116000E16
:101390001216180E166ED8901736183619361050C9
:1013A0000D5C11500E5812500F58D8A007D0105095
:1013B0000D5E11500E5A12500F5A1780D8900D36EC
:1013C0000E360F36162EE7D717C001F018C002F000
:1013D00019C003F01AC004F01BC005F04CEC0AF071
:1013E00001C00DF002C00EF003C00FF01200FF0E9E
:1013F00083EC0DF0BAEC0DF0A9EC0DF00009D8A4C7
:10140000FBD7AFEC0DF001C031F002C032F02B5031
:1014100083EC0DF0BAEC0DF0A9EC0DF00009D8A4A6
:10142000FBD7AFEC0DF001C033F002C034F031C097
:1014300009F032C00AF06EEC0CF009C010F00AC0DE
:1014400011F00BC012F0000E0D6EF00E0E6E420E7B
:101450000F6E86EC09F00DC01CF00EC01DF00FC021
:101460001EF033C009F034C00AF06EEC0CF009C075
:101470001FF00AC020F00BC021F099EC08F01CC04E
:101480002EF01DC02FF01EC030F02EC02BF02FC04C
:101490002CF030C02DF012000450D8B405D001500B
:1014A00002100310D8A40CD0000E016E000E026EC4
:1014B000000E036E1200042AD89003320232013269
:1014C000000E0114066E000E0214076EFE0E0314C9
:1014D000086E065007100810D8B40CD0ECD7042AB8
:1014E000010E0126000E0222000E0322D8900332C4
:1014F00002320132000E0114066E000E0214076E55
:10150000FF0E0314086E065007100810D8B406D05A
:10151000E6D70406D89001360236033602AEF9D774
:1015200004A0029ED8900432045003120550D8A49F
:10153000038E01C001F002C002F003C003F01200EC
:101540000AC00EF00BC00FF00EC001F00FC002F089
:101550000CC003F00DC004F045EC0CF001C00EF01F
:1015600002C00FF0084A092A0F500E10D8A4ECD779
:1015700008C0D9FF09C0DAFF000EDF6E0806D8A048
:1015800009060AC001F00BC002F00CC003F00DC048
:1015900004F092EC0CF00150106E0AC001F00BC088
:1015A00002F00CC003F00DC004F045EC0CF001C0DB
:1015B0000AF002C00BF0090E106402D0070E1026CC
:1015C000300E102608C0D9FF09C0DAFF10C0DFFFB7
:1015D0000806D8A009060B500A10D8A4D2D7084A8A
:1015E000092A12000101066F000EC26E000EC16EC4
:1015F000000EC06E0101D89000313C0BC26E01019B
:101600000039F00B300BC11206C103F10101D89073
:1016100003370101D8900337380E0101031706C1C3
:1016200004F10101043B0F0E0417070E010104171A
:1016300001010651800B0101041101010311C06E6B
:1016400001C17EFF010102C103F103C104F10101E7
:10165000056B010104517F6E010100AF03D09E9C18
:101660009D8CF28CC28012000101056F000EAC6EE1
:10167000000EAB6E010105B1AC88010105A302D0DB
:10168000AC8CAB8C010105B5AC8E010105A702D075
:10169000AB8801D0AB8A010105B9AC849E980101E9
:1016A00005BBAB86010105AD02D09D8A01D09D9A94
:1016B0009E9A010105AF02D09D8801D09D9800C17E
:1016C000AFFF010101C102F102C103F10101046B8D
:1016D00001010351B06EAC8AAB8E949C948EACA881
:1016E0001200ACBE1200948C1200000E096E000EA7
:1016F0000A6E000E0B6E000E0C6E085005100610E0
:101700000710D8B42AD0010E0D6E06D0D890053639
:101710000636073608360D2A08AEF8D7D8900936AF
:101720000A360B360C360550015C0650025807503D
:10173000035808500458D8A009D00550015E06503F
:10174000025A0750035A0850045A0980D8900832A8
:101750000732063205320D2EE1D709C001F00AC06A
:1017600002F00BC003F00CC004F012001550121070
:1017700013101410D8B424D0010E166E06D0D890D1
:101780001236133614361536162A15AEF8D71250FF
:101790000E5C13500F581450105815501158D8A003
:1017A00008D012500E5E13500F5A1450105A155094
:1017B000115AD8901532143213321232162EE7D73E
:1017C0000EC00EF00FC00FF010C010F011C011F0DD
:1017D0001200ACA2FED756C0F6FF57C0F7FFF86A5A
:1017E000010EF76403D00800F55005D0F6CFD9FFFD
:1017F000F7CFDAFFDF50A0EC0DF05650586E57507F
:10180000596E564A572A58C0F6FF59C0F7FFF86A72
:10181000010EF76403D00800F55005D0F6CFD9FFCC
:10182000F7CFDAFFDF500009D8B41200D2D78E0EFE
:10183000116E06D0D8900C320B320A320932112ABE
:10184000000E09140D6E000E0A140E6E000E0B141D
:101850000F6EFF0E0C14106E10500D100E100F10A6
:10186000D8A4E8D709C001F00AC002F00BC003F009
:1018700011C004F0000E056E4CEC0AF001C009F036
:1018800002C00AF003C00BF01200000E066E000E3C
:10189000056E04500310D8B41CD0010E076E04D09E
:1018A000D89003360436072A04AEFAD7D890053606
:1018B00006360350015C04500258D8A005D00350EE
:1018C000015E0450025A0580D89004320332072E7C
:1018D000EDD705C001F006C002F01200000E0C6E3C
:1018E0000A50800AF36E800EF35C000ED8B4095CD7
:1018F000D8B006D0096C0A1ED8B00A2A010E0C6EA8
:1019000009C001F00AC002F0036A8E0E046E0CC01A
:1019100005F04CEC0AF001C009F002C00AF003C067
:101920000BF0120004500310D8B418D0010E056E4D
:1019300004D0D89003360436052A04AEFAD70350F3
:10194000015C04500258D8A004D00350015E04503A
:10195000025AD89004320332052EF1D701C001F0AB
:1019600002C002F01200000E0101036F00C1A9FFC6
:1019700002C1A8FFA69EA69CA684000EF2BE010E80
:101980000101036FF29E550EA76EAA0EA76EA682E6
:10199000A6B2FED7010103B102D0F29E01D0F28EB1
:1019A000A6941200000E046E01C0A9FF03C0A8FF98
:1019B000A69EA69CA684000EF2BE010E046EF29EA8
:1019C000550EA76EAA0EA76EA682A6B2FED704B0C9
:1019D00002D0F29E01D0F28EA6941200000E441A9C
:1019E000000E451A800E461A41C035F042C036F04E
:1019F00043C037F044C038F045C039F046C03AF033
:101A000075EC05F035C041F036C042F037C043F008
:101A10001200000E066E000E056E66EC0DF0066EEE
:101A2000056A9EAAFED766EC0DF0046E04500512FE
:101A300005C002F006C003F012000101226B216B09
:101A4000206B1F6B00EEC2F0170EEE6AE806FDE198
:101A50005C6A5B6A5A6A000EF86E00013FEF04F0A0
:101A600001500302F3CF05F0F4CF06F00150040259
:101A7000F350062602500302F350062605C001F07B
:101A800006C002F012007F0E031402100110D8B439
:101A900006D0000E011A000E021A800E031A01C0B1
:101AA00001F002C002F003C003F01200036E000E4A
:101AB000026E3A0E035CD8B005D02F0E036402D03C
:101AC000010E026E02C001F001301200F20E5C162F
:101AD000ABAC03D05C90ABB05C80ABB45C84ABB21D
:101AE0005C86AECF01F0015012000101016F0D0EB6
:101AF0000101006FFC0EE82EFED7002FFCD701017C
:101B0000012FF5D71200026EC2CF01F0C30E0116ED
:101B1000D89002303C0B0110C26E120000C1A9FF28
:101B2000A69CA69EA68000F000F0A850120001C05E
:101B3000A9FFA69CA69EA68000F000F0A850120067
:101B4000016EACAC03D0AC905CB2AC8001C0ADFF18
:101B50001200C2A202D0010E1200000E1200C450E8
:101B6000026EC350016E1200A6A21200FDD7A6A2FB
:081B70001200FDD7C282120031
:020000040020DA
:08000000FFFFFFFFFFFFFFFF00
:020000040030CA
:0E000000FF081315FF0981FF0FC00FE00F402E
:00000001FF
